:1000000027C2000056C2000054C2000052C20000C5
:1000100050C200004EC200004CC200004AC20000A4
:1000200048C2000046C2000044C2000042C20000B4
:1000300040C200003EC200003CC200003AC20000C4
:1000400038C2000036C2000034C2000032C20000D4
:1000500030C200002EC200002CC200000C945E10C2
:1000600028C200000C94710F0C94480F22C20000AB
:1000700020C200001EC200001CC200001AC2000004
:1000800018C2000016C2000014C2000012C2000014
:100090000C941F0F0C94F60E0CC200000C94A810C8
:1000A00008C2000006C2000004C2000002C2000034
:1000B00000C20000FEC100000C94471AFAC1000003
:1000C000F8C10000F6C100000C94391AF2C100001A
:1000D000F0C10000EEC10000ECC10000EAC1000068
:1000E000E8C100003D0B4E0B5F0B700B810B920BB8
:1000F000A30B400E430E320E360E3C0E7A0E470E08
:100100004B0E510E550E590E5F0E630E670E7A0E92
:100110006D0E710E750E00407A10F35A00A0724EEB
:1001200018090010A5D4E80000E87648170000E49C
:100130000B54020000CA9A3B000000E1F5050000E4
:1001400080969800000040420F000000A086010049
:100150000000102700000000E80300000000640019
:10016000000000000A000000000001000000000084
:100170002C76D888DC674F0823DFC1DFAE59E1B1A8
:10018000B796E5E3E453C63AE651997696E8E6C2B7
:100190008426EB898C9B62ED407C6FFCEFBC9C9FBE
:1001A00040F2BAA56FA5F490055A2AF75C936B6CE0
:1001B000F9676DC11BFCE0E40D47FEF520E6B500D4
:1001C000D0ED902E0300943577050080841E080042
:1001D00000204E0A000000C80C333333330F986EF2
:1001E00012831141EF8D2114893BE65516CFFEE6AF
:1001F000DB18D1844B381BF77C1D901DA4BBE42475
:10020000203284725E228100C9F124ECA1E53D27F1
:10021000434C4F5345204F4B0D0A004552524F520D
:100220000D0A00414C524541445920434F4E4E4522
:1002300043540D0A00434F4E4E4543542046414916
:100240004C0D0A00434F4E4E454354204F4B0D0A70
:1002500000222C00222C220022544350002B434920
:100260005053544152543D002B43495053534C3D3D
:10027000002B434950434C4F53453D002B434950BD
:1002800052584745543A002B434950525847455419
:100290003D322C002C22494E495449414C22002C1D
:1002A00022434C4F53494E4722002C22434C4F537C
:1002B000454422002C22434F4E4E45435445442290
:1002C000002B4349505354415455533D004F4B0D5F
:1002D0000A004552524F520D0A002B4349505258C2
:1002E0004745543A002B43495052584745543D34F2
:1002F0002C00434C4F5345440D0A000D0A2B434933
:100300005052584745543A0000002100240027006D
:100310002A002D0030003300010100000401070114
:100320000A0100002200250028002B002E003100C9
:10033000340002010000050108010B0100000A0B56
:1003400002090C0D0E080703040100000000000064
:10035000000000000000000000000000000000009D
:10036000000000000000000012111000000000005A
:10037000000000000000000000000000000000007D
:100380000000000020002300260029002C002F0080
:100390003200000100000301060109010505050501
:1003A000070508080808020202020A0A08080404ED
:1003B000040401010101010101010303030303031B
:1003C0000303040707070C0C0C0C0C0C0C0C0202AA
:1003D000020206060606060606060B0B0B0B0B0BA7
:1003E0000B0B010210202008081020401020408034
:1003F00002010201080402010102040810204080E9
:100400008040201008040201800402018040201076
:1004100008040201080402010102040810204080BF
:1004200001020408102040800D0A4441544120413B
:1004300043434550543A004552524F520D0A003E34
:10044000002B43495053454E443D00009724542708
:1004500011241FBECFEFD1E2DEBFCDBF00E00CBF45
:1004600014E0A0E0B2E0E4EBFEE500E00BBF02C068
:1004700007900D92AA3DB107D9F728E0AAEDB4E0A4
:1004800001C01D92A73CB207E1F712E0C7E2D2E03B
:1004900000E006C021970109802FFE010E941B2E5B
:1004A000C632D10780E00807A9F70E94E31E0C942A
:1004B000492FA6CDCF93DF93EC01E881F981008429
:1004C000F185E02D1995892B11F48D8901C081E00A
:1004D000DF91CF910895DC011C96ED91FC911D9761
:1004E00080819181DC01ED91FC910680F781E02D06
:1004F0001994CF93DF931F92CDB7DEB7DC01ED9156
:10050000FC910288F389E02D41E050E0BE016F5F6D
:100510007F4F1995019719F4898190E002C08FEF00
:100520009FEF0F90DF91CF910895089580E090E0C4
:100530000895EF92FF920F931F93CF93DF931F9233
:10054000CDB7DEB77C018B0164E972E0DC018D91EF
:100550009C9149830E94B116B801F7018081918175
:100560000E94B316498150E060E070E02AE0D701B4
:100570008D919C910E94611667E972E0F70180817C
:1005800091810E94B116D7018D919C91DC01ED9172
:10059000FC910680F781E02D19950F90DF91CF91A6
:1005A0001F910F91FF90EF900C949F130F931F9347
:1005B000CF93DF93EC010E949F134E8561E772E0B9
:1005C0008C859D85B6DF1D8A00E010E020E030E0DC
:1005D00042ED52E06DEC72E08C859D850E94E41343
:1005E000FE01E75AFF4F11821082C95ADF4F19826C
:1005F0001882DF91CF911F910F910895CF93DF93D0
:10060000EC0160E08E810E94C20F61E08E810E9449
:10061000C20F60E08E810E94C20F8BE891E00197CB
:10062000F1F7DF91CF910895862F642F0C94C20FBC
:10063000862F0C949A0F862F642F0C94F10FAF9293
:10064000BF92CF92DF92FF920F931F93CF93DF93CE
:100650001F92CDB7DEB75C016B01F22E64E972E048
:10066000DC018D919C9149830E94B116B601F50180
:10067000808191810E94B316498150E060E070E072
:100680002AE0D5018D919C910E9461166F2DF50194
:10069000808191810E94AA16A80160E070E02AE0A2
:1006A000D5018D919C910E94611667E972E0F50178
:1006B000808191810E94B116D5018D919C91DC01C0
:1006C000ED91FC910680F781E02D19950F90DF9157
:1006D000CF911F910F91FF90DF90CF90BF90AF907F
:1006E0000C949F132F923F924F925F926F927F9242
:1006F0008F929F92AF92BF92CF92DF92EF92FF9232
:100700000F931F93CF93DF93CDB7DEB7A0970FB6AC
:10071000F894DEBF0FBECDBF1C012A013B013C8B0C
:100720002B8B1E8B0D8BF88EEF8ADA8EC98EBC8ECA
:10073000AB8E69E972E0CE010D960E94191660E455
:1007400070E0CE010D960E942C140E9452104B01B5
:100750005C010E949F13D1018D919C91DC01ED9170
:10076000FC910084F185E02D1995181619060CF0FE
:10077000C2C1D1018D919C91DC01ED91FC9102846B
:10078000F385E02D1995181619062CF789831A821E
:1007900041E050E0BE016F5F7F4FCE010D960E9499
:1007A0005314EB89FC89EF2B29F48D899E89892BC1
:1007B000E1F416C06B897C89CE0101960E94E31595
:1007C000BE016F5F7F4FCE010D960E940C14182F53
:1007D000CE0101960E941115112339F311E0E1C1F8
:1007E000AF89B88DAB2BE1F416C06D897E89CE013F
:1007F00001960E94E315BE016F5F7F4FCE010D96FB
:100800000E940C14182FCE0101960E94111511237D
:1008100039F312E0C6C1E98DFA8DEF2BE1F416C071
:100820006F89788DCE0101960E94E315BE016F5F3E
:100830007F4FCE010D960E940C14182FCE01019609
:100840000E941115112339F313E0ABC18B8D9C8DE0
:10085000892B61F516C0698D7A8DCE0101960E94B3
:10086000E315BE016F5F7F4FCE010D960E940C1401
:10087000182FCE0101960E941115112339F314E0AF
:1008800090C16BEF72E0CE0101960E94E315BE01AC
:100890006F5F7F4FCE010D960E940C14182FCE0172
:1008A00001960E941115111117C05FC06B8D7C8DD0
:1008B000CE0101960E94E315BE016F5F7F4FCE010E
:1008C0000D960E940C14182FCE0101960E9411154E
:1008D0001123B9F215E065C1D1016D917C914CE213
:1008E000CE0107960E942D16CE0107960E94011494
:1008F000613071058105910561F5F10160817181BA
:100900004AE0CE0101960E942D16CE0101960E946A
:1009100001146B017C01CE0101960E941115F5E0D6
:10092000CF16D10478F48FEFC81AD80ACC0CDD1C8E
:10093000F101EC0DFD1D0190F081E02D309711F0DB
:1009400091E0968B69E972E0CE010D960E94FC144D
:1009500007C0BE01695F7F4FCE010D960E94D7147C
:10096000CE0107960E941115F6CE62EF72E0CE011D
:1009700001960E94E315BE016F5F7F4FCE010D9679
:100980000E940C14182FCE0101960E9411151123FC
:1009900009F4E1CE09891A890850110967E972E062
:1009A000CE0101960E9419162D813E812115310537
:1009B00091F189899A89009771F18217930758F10B
:1009C0000817190718F08C0101501109ED84FE84F5
:1009D00049815A81C701CC24CA94DD24DA94970155
:1009E000200F311F28173907C8F0BA012F8F38A3FD
:1009F0004D8F5E8F0E942F2F2F8D38A14D8D5E8DD4
:100A0000009761F0BC016E197F090617170708F0FF
:100A10006B010196E7CF0FEF1FEF01C08601CE01FA
:100A200001960E9411157801A2E0EA0EF11C898955
:100A30009A89E816F90678F4CD84DE846CE270E0D9
:100A4000C6018E0D9F1D0E94142F009721F08C016E
:100A50000C191D0902C00FEF1FEF0E151F0528F41A
:100A60009E2D8F2D7801092F182F69E972E0CE0194
:100A700001960E94191689899A89E816F906C0F428
:100A80008017910708F48C01ED85FE85E00FF11FBA
:100A9000D08010826D857E856E0D7F1DCE01019602
:100AA0000E94FC148D859E85FC01E00FF11FD08211
:100AB000CE0101960E9401146B017C01CE010196CA
:100AC0000E941115B5E0CB16D10470F4EFEFCE1AE9
:100AD000DE0ACC0CDD1CF101EC0DFD1D0190F08156
:100AE000E02D309709F0158A69E972E0CE010D9684
:100AF0000E94FC1430CE0E945210DC01CB018819F8
:100B00009909AA09BB0984159505A605B70508F436
:100B100020CEED84FE84E114F104E1F109891A8903
:100B200001151105B9F157016501BFEFAB1ABB0AF9
:100B3000F6018081082E000C990B0E948D2B892BC9
:100B400099F7015011090E0D1F1DD8018C91082E27
:100B5000000C990B0E948D2B892B79F4A8014F5F13
:100B60005F4F4C195D095A8B498BEC14FD0458F406
:100B7000B601C7010E940B2F06C00C151D0570F3AE
:100B800001501109E2CFED85FE8589899A89E80F28
:100B9000F91F108269E972E0CE010D960E94FC14E3
:100BA00010E0CE010D960E941115812FA0960FB670
:100BB000F894DEBF0FBECDBFDF91CF911F910F9193
:100BC000FF90EF90DF90CF90BF90AF909F908F906D
:100BD0007F906F905F904F903F902F9008958F92ED
:100BE0009F92AF92BF92CF92DF92EF92FF920F93BC
:100BF0001F93CF93DF934C016B017A01DC01ED91E0
:100C0000FC910488F589E02D19950E949F13F40149
:100C1000E75AFF4F11821082329711821082F4013D
:100C2000B684C485D58564E972E0888199810E9483
:100C3000B11668E672E0888199810E94B3162AE0B5
:100C400040E050E0BA01888199810E94611667E90D
:100C500072E0888199810E94B11688819981DC01B6
:100C6000ED91FC910680F781E02D19950E949F136C
:100C700000E010E020E030E042ED52E06DEC72E088
:100C8000CE010E94E41364E972E0888199810E9498
:100C9000B1166DE572E0888199810E94B3164B2DE3
:100CA00050E060E070E02AE0888199810E9461163E
:100CB0006CE2888199810E94AA1668E572E08881B9
:100CC00099810E94B31664E572E0888199810E943F
:100CD000B316B601888199810E94B11661E572E070
:100CE000888199810E94B316A70160E070E02AE034
:100CF000888199810E94611667E972E088819981F3
:100D00000E94B11688819981DC01ED91FC910680E9
:100D1000F781E02D19950E949F1380E1A82E82E0B3
:100D2000B82E9BE1C92E92E0D92E23E2E22E22E0DA
:100D3000F22E05E312E024E432E048EF54E261E0F1
:100D400070E0CE01CFDC91E0813009F090E0F40159
:100D5000958B892F90E0DF91CF911F910F91FF909C
:100D6000EF90DF90CF90BF90AF909F908F900895BD
:100D70006F927F928F929F92AF92BF92CF92DF92AB
:100D8000EF92FF920F931F93CF93DF9300D000D089
:100D9000CDB7DEB74C016C01F12CD6011296AD90A7
:100DA000BC901397A114B10409F46AC0F5018689B7
:100DB000882309F465C0168A4F2D65EE72E0C401E0
:100DC000B8DB00E010E020E030E042ED52E06AEDF8
:100DD00072E0C4010E94E413813049F1D6011296F9
:100DE0006D907C9013974F2D61EC72E0C401A1DBF4
:100DF00004E912E02FE932E04AEA52E064EB72E0E3
:100E0000C4010E94E413E82E00E010E020E030E08E
:100E100042ED52E06DEC72E0C4010E94E41391E0F7
:100E2000E91290E0F301958B612C712C26C0C4016E
:100E30000E94A013C4010E94A013D4016D917C9163
:100E40004AE0CE0101960E942D16CE0101960E9425
:100E500001143B01CE0101960E94111500E010E043
:100E600020E030E042ED52E06DEC72E0C4010E94FF
:100E7000E4136114710409F4B1CFF501708A678637
:100E8000F2E0CF0ED11CF39485E0F81286CFD401A6
:100E90008D919C91DC01ED91FC910084F185E02D18
:100EA0001995892B89F0A12CB12CC12CD12CE12CC6
:100EB000F12C00E010E020E030E04AE050E060E09B
:100EC00070E0C4010FDCE3CF26960FB6F894DEBFC6
:100ED0000FBECDBFDF91CF911F910F91FF90EF908B
:100EE000DF90CF90BF90AF909F908F907F906F904A
:100EF00008952F923F924F925F926F927F928F92BE
:100F00009F92AF92BF92CF92DF92EF92FF920F9398
:100F10001F93CF93DF93CDB7DEB72E970FB6F8941C
:100F2000DEBF0FBECDBF7C011B015C874B870E94DB
:100F30009F13D7011C968D919C911D9719DF412C11
:100F4000512CF701E95AFF4FFA87E987C701875A01
:100F50009F4F98878F83D7015796BE87AD87EB85C4
:100F6000FC854E165F0608F017C1D70155968C9187
:100F7000882309F411C1E985FA8500811181AF81C7
:100F8000B8858D919C91081B190B17FF02C0005C5E
:100F90001F4F8B859C85841995098017910708F44C
:100FA0008C010115110509F441C048013101EF819F
:100FB000F885A080B180A985BA858D919C918A1908
:100FC0009B0997FF02C0805C9F4F009729F4200E79
:100FD000311E400E511EC3CF20E430E02A193B09D8
:100FE000582D492D2815390514F4522F432FC52E9D
:100FF000D42E8C159D050CF46C016D857E856A0DD3
:101000007B1DA601C3010E940B2FAC0CBD1CBFE3CE
:10101000AB22BB24EF81F885B182A0828C189D0899
:101020006C0C7D1C8114910491F2C1CFD7011C96E8
:101030008D919C911D979CDEF70187859089892B66
:1010400009F4AAC09684AF81B8850D911C91E985F9
:10105000FA8580819181081B190B1016110614F076
:10106000005C1F4FD7011C96CD90DC901D9701505E
:1010700011092CE2492D67E872E0C601E0DA00E0D0
:1010800010E020E030E042ED52E06CE772E0C60193
:101090000E94E413813009F062CFC6010E94A013C0
:1010A000C6010E94A013F601608171814CE2CE015D
:1010B00001960E942D16CE0101960E9401143B015B
:1010C000CE0101960E9411155601A90CB11CA90C64
:1010D000B11CD50112960D911C911397F6016081F8
:1010E00071814AE0CE0101960E942D16CE01019633
:1010F0000E940114D80150967C936E931F97CE01E5
:1011000001960E94111500E010E006151705C0F5C4
:10111000F60180819181DC01ED91FC910084F185E3
:10112000E02D1995892B19F40E949F13F1CFF60138
:1011300080819181DC01ED91FC910284F385E02DA9
:101140001995F501428153814A01F7E58F0E911CF3
:10115000F401A081B1819D012F5F3F4F2F73332791
:101160003296608171812617370739F0A40FB51FB9
:1011700057968C93D4012D933C930F5F1F4FC5CF8F
:1011800000E010E020E030E042ED52E06DEC72E073
:10119000C6010E94E413E3CEC2012E960FB6F89466
:1011A000DEBF0FBECDBFDF91CF911F910F91FF909A
:1011B000EF90DF90CF90BF90AF909F908F907F90F7
:1011C0006F905F904F903F902F9008958F929F92D5
:1011D000AF92BF92EF92FF920F931F93CF93DF9343
:1011E000EC010E949F138E01095A1F4F7E0129E5D1
:1011F000E20EF11CF80120813181F701808191819B
:10120000281B390B37FF3CC0203CFFEF3F0739F567
:101210008D898823D1F046D789889A88AB88BC8885
:10122000DC01CB0188199909AA09BB09853F9140C6
:10123000A105B10538F081E08E8B34D7698B7A8BAC
:101240008B8B9C8B8C859D8593DDF8012081318172
:10125000F70180819181281B390B37FF02C0205C88
:101260003F4F8F859889820F931FDF91CF911F91F8
:101270000F91FF90EF90BF90AF909F908F90089547
:101280002115310529F2EDCF4833C9F4811106C08B
:10129000809102029091030201971AC0813031F4CB
:1012A000809106029091070201971EC0823009F0DA
:1012B00040C08091040290910502019721C0423301
:1012C00021F581110AC080910202909103020196DA
:1012D00090930302809302020895813051F480912B
:1012E00006029091070201969093070280930602EE
:1012F00008958230F1F480910402909105020196E4
:1013000090930502809304020895811105C07093A3
:101310000302609302020895813029F4709307025A
:10132000609306020895823021F470930502609361
:1013300004020895A8958091E9049091EA0481300F
:101340009105A1F08230910509F440C0892B09F084
:101350003FC00E94B91B40E060E08AE992E00E9431
:101360007B1B40E061E085EA92E01EC0A895809179
:10137000E7049091E80481309105C1F01CF4892BB9
:1013800039F0089582309105C1F00397E9F008958E
:101390000E94B91B40E060E08FEA92E00E947B1B54
:1013A00040E061E089EB92E00C947B1B0E94B91B4A
:1013B00040E060E085EC92E0F7CF0E94B91B40E08E
:1013C00060E08FEC92E0F0CF0C94B91B0C94281CD9
:1013D00008952F923F924F925F926F927F928F92D9
:1013E0009F92AF92BF92CF92DF92EF92FF920F93B4
:1013F0001F93CF93DF93CDB7DEB764970FB6F89402
:10140000DEBF0FBECDBF6B017C01A89522E0AB0112
:10141000BC01CE0107960E9416158B8514E1181B9E
:1014200022E0B701A601CE0101960E941615412FB8
:1014300060E089819A810E947B1BCE0101960E9407
:101440001115CE0107960E9411152CD661E083E399
:1014500099D52FEF87EA91E6215080409040E1F73F
:1014600000C000001FD64B015C0161E082E38AD519
:101470002FEF89E698E1215080409040E1F700C0CD
:1014800000001092E6041092E5041B8A1C8A712C5D
:10149000612C08EE13E0A8956091E5047091E604D4
:1014A00080E090E00E94A92B1B012C0160910002BA
:1014B00070910102C8010E94E52D80E090E00E9439
:1014C000A92B9B01AC01C201B1010E940A2C20E0B2
:1014D00030E04AE754E40E94512D1B012C01E2D573
:1014E000DC01CB0188199909AA09BB09893B9B40FA
:1014F000A105B10580F12B893C89472D562DB101FD
:10150000C2010E94A52B1816FCF060E082E33AD5D8
:101510008FEF93ED20E3815090402040E1F700C031
:10152000000060E083E32ED51092E2041092E10403
:101530008DED92E00E94F01C81E08093EB0480E04E
:101540000E94111D80E01EC1ADD54B015C012B8AAC
:101550003C8A742C652C2DEC3CEC4CE45DE3C7011B
:10156000B6010E94EC2C9B01AC01B101C2010E94AA
:10157000A52B87FD90CF60E082E304D58FEF93ED3C
:1015800020E3815090402040E1F700C0000060E07F
:1015900083E3F8D422E0A101B201CE0107960E94B4
:1015A000161560EF72E0CE0101960E941916BE0179
:1015B000695F7F4FCE0101960E949C14B0D7CE0187
:1015C00001960E941115CE0107960E9411158FEF0A
:1015D00099E628E1815090402040E1F700C00000EA
:1015E0008EEF92E00E94F01C0091E1041091E20461
:1015F0000E94DE1A89E093E0A8D74AE0B801CE0144
:1016000001960E9474154AE060914107CE01079649
:101610000E949F1566E173E0CE010D960E94191697
:10162000BE01695F7F4FCE010D960E949C146DE153
:1016300073E00E948514BE016F5F7F4F0E949C146F
:101640006ED7CE010D960E941115CE0107960E940D
:101650001115CE0101960E941115E09141078E2FC0
:1016600090E0FC013197E730F10508F07EC0882753
:10167000EE58FF4F8F4F0C941B2E8DE390E00E948D
:10168000C12C7C016091DD048CE390E00E94C62CAB
:10169000B701600F711F8DE390E065C080E490E0BA
:1016A0000E94C12C7C016091DD048FE390E00E94D8
:1016B000C62CB701600F711F80E490E054C083E432
:1016C00090E00E94C12C7C016091DD0482E490E0F6
:1016D0000E94C62CB701600F711F83E490E043C0E5
:1016E00086E490E00E94C12C7C016091DD0485E4D9
:1016F00090E00E94C62CB701600F711F86E490E055
:1017000032C089E490E00E94C12C7C016091DD042C
:1017100088E490E00E94C62CB701600F711F89E435
:1017200090E021C08CE490E00E94C12C7C0160918B
:10173000DD048BE490E00E94C62CB701600F711F9E
:101740008CE490E010C08FE490E00E94C12C7C01FA
:101750006091DD048EE490E00E94C62CB701600F1A
:10176000711F8FE490E00E94D82C1092E204109236
:10177000E1040E94B91B81E08093EB0480E00E94A9
:10178000111D81E064960FB6F894DEBF0FBECDBF89
:10179000DF91CF911F910F91FF90EF90DF90CF904D
:1017A000BF90AF909F908F907F906F905F904F9081
:1017B0003F902F900895CF92DF92EF92FF920F9378
:1017C0001F93CF93DF937C016C0187E0C80ED11C7F
:1017D000C0E0D0E0062F10E0B8010C2E02C07595D5
:1017E00067950A94E2F76170F60181916F01CAD39F
:1017F0002196C430D10581F7C701DF91CF911F91A8
:101800000F91FF90EF90DF90CF900C94FE02CF925B
:10181000DF92EF92FF920F931F93CF93DF93EC0130
:10182000F62E642F8C81AED38D818F3F11F060E056
:10183000A9D38F850F2D10E084FF24C06E0187E0AF
:10184000C80ED11CE12CF12CB8010E2C02C07595EC
:1018500067950A94E2F76170F60181916F0192D366
:10186000FFEFEF1AFF0A88E0E816F10469F7CE01EE
:10187000DF91CF911F910F91FF90EF90DF90CF906C
:101880000C94FE02B80184E0759567958A95E1F79E
:10189000CE0191DF6F2DCE01DF91CF911F910F917E
:1018A000FF90EF90DF90CF9086CF41E0B0DF81E0F6
:1018B00090E0089540E0ABCF61E0FCDF8BE39FE177
:1018C0000197F1F70895CF93DF93FC01A089B189C7
:1018D0008C91A689B78982FD2BC0C289D389888162
:1018E00082FF07C0818D8E5F8F73288126952170BE
:1018F00003C0818D8F5F8F739C91328D8317C9F0E8
:10190000388132FF0DC0318DDF01A30FB11D5D960F
:101910002C93218DDF01A20FB11D5E969C9306C012
:10192000218DDF01A20FB11D5D969C93818F01C0B7
:101930008C91DF91CF910895FC01538D448D252F1B
:1019400030E0842F90E0821B930B541710F0CF9659
:10195000089501970895FC01918D828D981721F1CA
:10196000A289B3898C9182FF13C0828DDF01A80FF9
:10197000B11D5D962C91828DDF01A80FB11D5E9681
:101980008C91928D9E5F9F73928F90E0922B089521
:10199000828DDF01A80FB11D5D968C91928D9F5FA6
:1019A0009F73928F90E008958FEF9FEF0895FC0151
:1019B000918D828D9817C1F0A289B3898C9182FF95
:1019C0000DC0928D828DDF01A80FB11D5E968C91A6
:1019D000E90FF11D258D90E0922B0895828DE80F7F
:1019E000F11D858D90E008958FEF9FEF0895FC0124
:1019F000218D428D30E0C901805C9F4F841B91098D
:101A00008F7399270288F389E02D208122FF02C07D
:101A100096958795089584E198E0E9DF21E0892B88
:101A200009F420E0822F089589EA95E0E0DF21E0C3
:101A3000892B09F420E0822F0895CF93DF93FC01D6
:101A4000A289B3898C9182FF1CC0848DEF01C80FDD
:101A5000D11DC35ADF4F3881848DEF01C80FD11DCE
:101A6000C25ADF4F2881848D90E002968F739927A8
:101A7000848F8C9130FF02C0816001C08E7F8C9377
:101A80000DC0848DDF01A80FB11DA35ABF4F2C914B
:101A9000848D90E001968F739927848FA689B789EA
:101AA0002C93A089B1898C9180648C93938D848DC3
:101AB000981306C00288F389E02D80818F7D808392
:101AC000DF91CF910895EF92FF921F93CF93DF9311
:101AD000EC017B019B8D8C8DEA89FB89981305C0F5
:101AE000A889B9898C9185FD3AC0808182FF03C0A5
:101AF0001B8D1E5F02C01B8D1F5F1F738C8D181303
:101B00000BC00FB607FCFACFE889F989808185FF01
:101B1000F5CFCE0192DFF2CFEA89FB89808182FF87
:101B200010C08B8DDE01A80FB11DA35ABF4F8F2DA2
:101B300081708C938B8DDE01A80FB11DA25ABF4F0F
:101B400006C08B8DDE01A80FB11DA35ABF4FEC92CA
:101B50001B8F80818062808381E0888F12C08081AA
:101B600082FF07C08081F0FE02C0816001C08E7FCD
:101B70008083EE89FF89E082E889F9898081806429
:101B8000808381E090E0DF91CF911F91FF90EF90F3
:101B90000895CF93DF93EC01888D8823C1F0EA8903
:101BA000FB89808185FD05C0A889B9898C9186FD56
:101BB0000EC00FB607FCF5CF808185FFF2CFA88954
:101BC000B9898C9185FFEDCFCE0137DFE8CFDF916A
:101BD000CF91089580E090E0892B19F025DF8111E5
:101BE00020C080E090E0892B19F015DF81111CC026
:101BF00080E090E0892B41F080E090E0892B21F09B
:101C00000E940000811113C080E090E0892BA1F0B8
:101C100080E090E0892B81F00E94000081110AC0D1
:101C200008950E940000DDCF0E940000E1CF0E94D5
:101C30000000EACF0C9400000895DC01ED91FC91C6
:101C400070E00684F785E02D199490E0FC0131974F
:101C5000E231F10508F04EC08827E758FF4F8F4F5B
:101C60000C941B2E809180008F7703C080918000A0
:101C70008F7D80938000089580918000877FF9CFC9
:101C800084B58F7702C084B58F7D84BD089580911F
:101C9000B0008F7703C08091B0008F7D8093B0003B
:101CA0000895809190008F7707C0809190008F7D7C
:101CB00003C080919000877F809390000895809169
:101CC000A0008F7707C08091A0008F7D03C0809116
:101CD000A000877F8093A0000895809120018F77D6
:101CE00007C0809120018F7D03C080912001877FF4
:101CF00080932001089585ED8093BC008091BC0005
:101D000084FDFCCF1092840508950895E0913D056F
:101D100080913C05E81730F4F0E0E25CFA4F8081F6
:101D200090E008958FEF9FEF089590913D05809189
:101D30003C05981750F4E92FF0E0E25CFA4F20815F
:101D400030E09F5F90933D0502C02FEF3FEFC90148
:101D5000089580913C0590E020913D05821B9109FA
:101D600008958F929F92AF92BF92CF92DF92EF929F
:101D7000FF920F931F93CF93DF937C018B016C0134
:101D800082E0C80ED11C4701E5E08E0E911CC0E038
:101D9000D0E0F60141916F0150E060E070E02AE090
:101DA000C8018FD75C016EE2C801D4D78A0D9B1D94
:101DB000C80FD91FC814D90461F7F701458150E055
:101DC00060E070E02AE0C8017CD78C0F9D1FDF9196
:101DD000CF911F910F91FF90EF90DF90CF90BF9028
:101DE000AF909F908F9008950E94072F1F920F929F
:101DF0000FB60F9211240BB60F922F933F934F9370
:101E00005F936F937F938F939F93AF93BF93EF9362
:101E1000FF9384E198E011DEFF91EF91BF91AF91C4
:101E20009F918F917F916F915F914F913F912F91F2
:101E30000F900BBE0F900FBE0F901F9018951F9222
:101E40000F920FB60F9211240BB60F922F933F9360
:101E50004F935F936F937F938F939F93AF93BF93B2
:101E6000EF93FF9384E198E02EDDFF91EF91BF9116
:101E7000AF919F918F917F916F915F914F913F9122
:101E80002F910F900BBE0F900FBE0F901F901895C3
:101E90001F920F920FB60F9211240BB60F922F9331
:101EA0003F934F935F936F937F938F939F93AF93E2
:101EB000BF93EF93FF9389EA95E0BFDDFF91EF9128
:101EC000BF91AF919F918F917F916F915F914F9152
:101ED0003F912F910F900BBE0F900FBE0F901F9050
:101EE00018951F920F920FB60F9211240BB60F92F6
:101EF0002F933F934F935F936F937F938F939F9312
:101F0000AF93BF93EF93FF9389EA95E0DCDCFF91F9
:101F1000EF91BF91AF919F918F917F916F915F9161
:101F20004F913F912F910F900BBE0F900FBE0F90CE
:101F30001F901895CF93DF93282F30E0F901E45CD0
:101F4000FC4F8491F901EE51FC4FD491F901E45614
:101F5000FC4FC491CC2389F0811177DEEC2FF0E0A7
:101F6000EE0FFF1FEE57FC4FA591B491EC91ED23BE
:101F700081E090E021F480E002C080E090E0DF9119
:101F8000CF9108951F93CF93DF93282F30E0F9016D
:101F9000E45CFC4F8491F901EE51FC4FD491F901BE
:101FA000E456FC4FC491CC23C1F0162F81114DDEB5
:101FB000EC2FF0E0EE0FFF1FEE5DFC4FA591B4910A
:101FC0008FB7F894111105C09C91ED2FE095E9238E
:101FD00002C0EC91ED2BEC938FBFDF91CF911F915D
:101FE0000895CF93DF9390E0FC01EE51FC4F2491D4
:101FF000FC01E456FC4F8491882361F190E0880F46
:10200000991FFC01E85FFC4FC591D491FC01EE5D86
:10201000FC4FA591B491611109C09FB7F8948881D4
:10202000209582238883EC912E230BC0623061F4CB
:102030009FB7F8943881822F809583238883EC9111
:102040002E2B2C939FBF06C08FB7F894E8812E2BC0
:1020500028838FBFDF91CF9108953FB7F894809187
:10206000380590913905A0913A05B0913B0526B508
:10207000A89B05C02F3F19F00196A11DB11D3FBFC0
:10208000BA2FA92F982F8827820F911DA11DB11D4E
:10209000BC01CD0142E0660F771F881F991F4A954A
:1020A000D1F708952FB7F8946091340570913505F4
:1020B00080913605909137052FBF08951F920F929A
:1020C0000FB60F9211242F933F938F939F93AF934B
:1020D000BF938091340590913505A0913605B0915C
:1020E00037053091330523E0230F2D3720F4019677
:1020F000A11DB11D05C026E8230F0296A11DB11D2B
:10210000209333058093340590933505A0933605CD
:10211000B09337058091380590913905A0913A0523
:10212000B0913B050196A11DB11D80933805909398
:102130003905A0933A05B0933B05BF91AF919F91AC
:102140008F913F912F910F900FBE0F901F90189578
:102150001F920F920FB60F9211240BB60F922F936E
:102160003F934F935F936F937F938F939F93AF931F
:10217000BF93EF93FF938091B900887F803609F475
:102180009CC068F5883209F45BC090F4803109F492
:1021900054C038F4882309F4F6C0883009F44DC0DF
:1021A000F5C0883109F44CC0803209F45DC0EEC03E
:1021B000803409F468C048F4803309F455C088338A
:1021C00009F0E4C080938205D8C0803509F44FC07F
:1021D000883509F45DC0883409F0D8C0D6C0883984
:1021E00009F4C7C0A8F4883709F467C038F4883602
:1021F00009F463C0803709F460C0C8C0883809F4A6
:10220000B8C0803909F45FC0803809F0BFC05BC036
:10221000803B09F486C038F4803A09F466C0883AF5
:1022200009F47FC0B3C0803C09F4A7C0883C09F41E
:10223000A4C0883B09F48AC0A9C080915F0510C082
:102240009091810580918005981770F5E091810546
:1022500081E08E0F80938105F0E0E05AFA4F808193
:102260008093BB0085EC86C0809382058EC0E09190
:10227000810581E08E0F809381058091BB00F0E0A5
:10228000E05AFA4F808390918105809180056EC05D
:10229000E091810581E08E0F809381058091BB00E4
:1022A000F0E0E05AFA4F80838091830581116DC080
:1022B00081E080935E0584EA61C083E080938405B9
:1022C00010923205CFCF80913205803208F051C094
:1022D000E091320581E08E0F809332058091BB0042
:1022E000F0E0EE5EFA4F8083BDCF85EC8093BC00BA
:1022F0001092840580913205803230F4E0913205ED
:10230000F0E0EE5EFA4F10826091320570E0E091ED
:102310001005F091110582E195E0199510923205B2
:1023200035C084E08093840510920F0510920E054D
:10233000E0910C05F0910D05199580910E05811124
:1023400005C081E080930E051092EC04E0910F052A
:1023500081E08E0F80930F05F0E0E451FB4F808108
:102360008093BB0090910F0580910E05981708F49B
:1023700079CF85E88093BC0009C085EC8093BC00D0
:102380001092840503C010928205B5DCFF91EF9195
:10239000BF91AF919F918F917F916F915F914F917D
:1023A0003F912F910F900BBE0F900FBE0F901F907B
:1023B000189540910E05262F30E0240F311D213253
:1023C0003105DCF4209184052430C9F4FC0180E05F
:1023D00090E0861758F430910E052191DC01A4514C
:1023E000BB4FA30FB11D2C930196F3CF80910E0527
:1023F000680F60930E0580E0089581E0089582E003
:10240000089596E0899FD0011124A659B94F90965E
:102410007C936E935F9791E091969C9391979091A6
:10242000D606E091D706F091D806992339F0309777
:1024300051F0811108C08091860604C0309719F0D0
:102440005C968C9119940895CF92DF92EF92FF924F
:102450000F931F93CF93DF936C017A018B01C0E040
:10246000D0E0CE15DF0589F0D8016D918D01D60140
:10247000ED91FC910190F081E02DC6011995892B19
:1024800011F47E0102C02196ECCFC701DF91CF91FC
:102490001F910F91FF90EF90DF90CF9008950F93D1
:1024A0001F93CF93DF93EC01FDDD688779878A87DF
:1024B0009B87E881F9810284F385E02DCE0119958F
:1024C00097FF16C0EFDD088519852A853B85DC015D
:1024D000CB01801B910BA20BB30B0C811D812E81B4
:1024E0003F8180179107A207B30718F38FEF9FEF83
:1024F000DF91CF911F910F910895CF93DF93EC015E
:1025000088819981009711F00E94182819821882F9
:102510001D821C821B821A82DF91CF910895CF9376
:10252000DF93FC01448155816081718189EA95E0E6
:102530008BDFEC0167E972E089EA95E00E94CE1E2C
:102540008C0F9D1FDF91CF910895CF93DF93BC0136
:1025500089EA95E00E94CE1EEC0167E972E089EA03
:1025600095E00E94CE1E8C0F9D1FDF91CF910895A4
:10257000EF92FF920F931F93CF93DF93EC014230C2
:1025800018F08F8588608F874B8B1C8A80E48D8B39
:102590006E8B70E0605C7F4F6F8B61E08C8121DD22
:1025A0008D818F3F11F061E01CDD61E08E8119DDCE
:1025B0007E0187E0E80EF11C00E010E08F8584FDCD
:1025C00003C084E090E002C088E090E0081719079B
:1025D00044F461E0F70181917F0103DD0F5F1F4F3C
:1025E000EDCF8BE39DE00197F1F760E08C81CADCD1
:1025F00060E08E81C7DC8D818F3F11F060E0C2DC2E
:102600006F8564FD19C063E0CE01D5D80BE416E4F4
:10261000C8010197F1F763E0CE01CDD8C801019759
:10262000F1F763E0CE01C7D883E592E00197F1F7B7
:1026300062E0CE01C0D813C06062CE013BD98BE40A
:1026400096E40197F1F76F856062CE0133D983E597
:1026500092E00197F1F76F856062CE012BD96F850B
:102660006062CE0127D984E0888B6CE0CE0122D94C
:10267000CE0122D982E0898B66E0CE01DF91CF9135
:102680001F910F91FF90EF9015C90F931F93CF9358
:10269000DF93C82FD62F86E0C89FF0011124E6599A
:1026A000F94F11A2878D90A181309105E1F01CF4C2
:1026B000892B49F03FC08230910591F10397D1F504
:1026C00060E070E031C06623A9F161E070E08C2F1A
:1026D00098DEE8DC6093C2067093C3068093C4065C
:1026E0009093C50627C0DEDC0091C2061091C30698
:1026F0002091C4063091C506AB01BC01401B510BB3
:10270000620B730B8091D4069091D506A0E0B0E0E7
:1027100084179507A607B70718F462E070E004C0B5
:10272000D11108C063E070E08C2FDF91CF911F9131
:102730000F9167CEDF91CF911F910F9108958DCCAE
:10274000CF92DF92EF92FF92CF93DF93EC01AADC5E
:102750006B017C01A7DCAB01BC014C195D096E0962
:102760007F09483B5B4061057105C8F49BDCAB0108
:10277000BC014C195D096E097F09483B5B4061054E
:10278000710578F488819981DC01ED91FC910084D8
:10279000F185E02D1995892B21F4D1DFE7CF80E079
:1027A0000CC088819981DC01ED91FC910284F38554
:1027B000E02D19958C9771F681E0DF91CF91FF9014
:1027C000EF90DF90CF900895AF92BF92CF92DF92BB
:1027D000EF92FF920F931F93A12CB12C6801790106
:1027E0008A019B0148EE53E060E070E00E947203B2
:1027F0001F910F91FF90EF90DF90CF90BF90AF901F
:102800000895FC0180819181009711F00C94B0280B
:1028100060E070E0CB010895FC0124813581FB016B
:102820004481558124173507A0F0FC0180819181F6
:10283000009779F0FB01608171816115710549F0A4
:10284000241B350B820F931F0E941F2F21E0892B21
:1028500009F020E0822F08950F931F93CF93DF9309
:10286000EC0188819981009729F02A813B81261704
:10287000370788F48B016F5F7F4F0E94232E0097EC
:1028800061F0998388831B830A832C813D81232BEC
:1028900011F4FC01108281E001C080E0DF91CF9152
:1028A0001F910F910895EF92FF920F931F93CF9373
:1028B000DF93FC01248135816115710511F480E0FD
:1028C00018C041155105A1F07B01EC018A01020FEE
:1028D000131FB801C1DF882391F3288139818C81CE
:1028E0009D81B701820F931F0E94282F1D830C83A7
:1028F00081E0DF91CF911F910F91FF90EF900895AC
:1029000041E050E067E073E0CECFCF93DF93EC017E
:102910006115710559F0FB0101900020E9F731972D
:10292000AF01461B570BBFDF811102C0CE01E5DDB1
:10293000CE01DF91CF910895CF93DF93EC01FB019E
:102940004481558160817181AEDF811102C0CE0169
:10295000D4DDCE01DF91CF910895EF92FF920F93D6
:102960001F93CF93DF9300D01F92CDB7DEB77C01CA
:10297000862F4AE08E010F5F1F4FB80190E00E9442
:10298000E628F80101900020E9F73197AF01401BDC
:10299000510BB801C70187DF0F900F900F900F9078
:1029A000DF91CF911F910F91FF90EF900895FB0160
:1029B000448155816081718176CFEF92FF920F93B0
:1029C0001F93CF93DF93EC017B018A01BA0144DFAF
:1029D000811103C0CE0191DD07C01D830C83B701B7
:1029E000888199810E94282FCE01DF91CF911F917C
:1029F0000F91FF90EF900895CF93DF93EC01611555
:102A0000710551F0FB0101900020E9F73197AF010A
:102A1000461B570BD2DF01C070DDCE01DF91CF9195
:102A20000895FC01808191810C941828EF92FF9207
:102A30000F931F93CF93DF93CDB7DEB7A1970FB658
:102A4000F894DEBF0FBECDBF7C01CB01BA01F70108
:102A500011821082138212821582148242E0420F88
:102A60008E010F5F1F4F0E946427BC01C701C4DFA6
:102A7000A1960FB6F894DEBF0FBECDBFDF91CF9108
:102A80001F910F91FF90EF900895EF92FF920F9397
:102A90001F93CF93DF93CDB7DEB7A1970FB6F8940E
:102AA000DEBF0FBECDBF7C01CB01BA01F7011182A1
:102AB0001082138212821582148242E0420F8E012C
:102AC0000F5F1F4F0E946427BC01C70195DFA196CD
:102AD0000FB6F894DEBF0FBECDBFDF91CF911F912F
:102AE0000F91FF90EF9008950F931F93CF93DF9373
:102AF000CDB7DEB761970FB6F894DEBF0FBECDBF7E
:102B00008C01CB01F801118210821382128215828E
:102B1000148250E0BE016F5F7F4F0E940529BE0105
:102B20006F5F7F4FC80168DF61960FB6F894DEBF14
:102B30000FBECDBFDF91CF911F910F9108950F93DD
:102B40001F93CF93DF93CDB7DEB729970FB6F894D5
:102B5000DEBF0FBECDBF8C01862FF801118210821F
:102B6000138212821582148250E0BE016F5F7F4F84
:102B700090E00E940529BE016F5F7F4FC8013CDFD6
:102B800029960FB6F894DEBF0FBECDBFDF91CF916F
:102B90001F910F910895CF93DF931F921F92CDB78E
:102BA000DEB7FC0111821082138212821582148218
:102BB00069831A82BE016F5F7F4F1EDF0F900F90F7
:102BC000DF91CF910895EF92FF920F931F93CF93D0
:102BD000DF93EC01198218821B821A821D821C82EB
:102BE00061157105F9F08B01CB010E94DD287C0194
:102BF000BC01CE0131DE811108C0CE01DF91CF9141
:102C00001F910F91FF90EF9078CCFD82EC82B8017C
:102C100088819981DF91CF911F910F91FF90EF9063
:102C20000C94D628DF91CF911F910F91FF90EF90D8
:102C30000895FC011182108213821282158214827F
:102C40006115710549F0FB0101900020E9F731970A
:102C5000AF01461B570BB1CE0895CF92DF92EF9292
:102C6000FF920F931F93CF93DF931F921F92CDB7C5
:102C7000DEB78C016B01E42E69E972E0DADFC60190
:102C80000EDC0E2C000CFF0897FD0FC08E159F0563
:102C900061F089831A8241E050E0BE016F5F7F4F8F
:102CA000C80101DEC601FBDBEFCFC8010F900F901A
:102CB000DF91CF911F910F91FF90EF90DF90CF9018
:102CC00008954F925F926F927F92EF92FF920F93CF
:102CD0001F93CF93DF93CDB7DEB7A1970FB6F894CC
:102CE000DEBF0FBECDBF7C01FA01CB0119A222309D
:102CF00008F42AE08E010F5D1F4F422E512C612CEB
:102D0000712CBF01A30192010E94F92DF901CA01A2
:102D1000015011096A3014F4605D01C0695CD8018A
:102D20006C93232B242B252B61F7B801C7010E943C
:102D3000CE1EA1960FB6F894DEBF0FBECDBFDF91B9
:102D4000CF911F910F91FF90EF907F906F905F90C8
:102D50004F900895DC01ED91FC910190F081E02D00
:102D600019940C94CE1EEF92FF920F931F93CF9362
:102D7000DF938C017B01C0E0D0E0F701EC0FFD1F79
:102D80006491662361F0D801ED91FC910190F0818E
:102D9000E02DC8011995892B11F02196EECFCE01B7
:102DA000DF91CF911F910F91FF90EF900895382FF1
:102DB0002091A8059091A705213208F049C0809183
:102DC00084058111FCCF42E0409384053093830554
:102DD0003FEF309382051092810520938005A7E88C
:102DE000B5E040E655E0FA013E2F341B321718F4E7
:102DF0003D913193F9CF10925F0520915F05990FB6
:102E0000922B90935F0590915E05913061F4109242
:102E10005E0590915F059093BB009091BC0093FD7F
:102E2000F8CF95EC01C095EE9093BC00909184058D
:102E30009230E1F3909182059F3F79F08091820575
:102E4000803241F080918205803331F084E005C00A
:102E500081E003C082E001C083E0109286051092F9
:102E6000A805109285050895909184059111FCCFD5
:102E7000813208F080E291E090938405909383057D
:102E80002FEF2093820510928105280F2093800553
:102E900090935F0590915F05906D90935F05909181
:102EA0005E05913061F410925E0590915F059093FC
:102EB000BB009091BC0093FDF8CF95EC01C095EE5E
:102EC0009093BC00909184059130E1F3909181053D
:102ED000981710F480918105A0E6B5E02EE335E067
:102EE000F9019E2F921B981718F49D919193F9CF99
:102EF00010923D0580933C050895982F9F709A305D
:102F000060F4803A50F48695869586958E71282FC8
:102F1000220F220F820F890F08958FEF0895DC0191
:102F2000ED91FC910688F789E02D199591E08111CA
:102F300001C090E0892F08958FEF9FEF0895CF9300
:102F4000DF931F92CDB7DEB76983DC01ED91FC9171
:102F50000280F381E02D41E050E0BE016F5F7F4FC2
:102F600019950F90DF91CF910895CF92DF92EF9254
:102F7000FF92CF93A89591E09093850598E6909362
:102F8000A705109286051092A805682F86E496E0A2
:102F900083D381E00CDF2FEF80E792E02150804067
:102FA0009040E1F700C0000081E090E05DDF7AD85A
:102FB0006B017C0190913C0580913D0598130EC0FA
:102FC00071D8DC01CB018C199D09AE09BF09853F81
:102FD0009140A105B10570F38FEF13C086E496E030
:102FE0000E94950EC82F482F50E060E070E020E16D
:102FF00089EA95E066DE67E972E089EA95E0CED677
:103000008C2FCF91FF90EF90DF90CF9008956115B6
:10301000710579F0FB0101900020E9F73197AF01CC
:10302000461B570BDC01ED91FC910280F381E02DF2
:10303000199480E090E008958F929F92AF92BF9292
:10304000CF92DF92EF92FF920F931F93CF93DF9374
:1030500000D000D0CDB7DEB76C014B015A016FDB59
:10306000D6011C968D919C911D970E94B806F60181
:10307000E484F58485012CE2468561E474E0C701AF
:103080000E941F0300E010E020E030E047E354E03E
:103090006FE374E0C70198DB813019F000E010E0C5
:1030A00032C0D7018D919C91DC01ED91FC910280A1
:1030B000F381E02DA501B4011995F701808191817B
:1030C000DC01ED91FC910680F781E02D199500E07F
:1030D00010E020E030E047E354E068E274E0C7012C
:1030E00073DB8130D9F6C7012BDBF7016081718179
:1030F0004AE0CE010196B1DDCE01019682DB8B0163
:10310000CE0101968EDCC80126960FB6F894DEBF7C
:103110000FBECDBFDF91CF911F910F91FF90EF9028
:10312000DF90CF90BF90AF909F908F900895EF92D7
:10313000FF920F931F93CF93DF93CDB7DEB72897FE
:103140000FB6F894DEBF0FBECDBF7C018B0169E9DD
:1031500072E0CE0101964F8358876BDD60E170E02D
:10316000CE01019679DBD80112966C91CE010196C1
:10317000F4DBCE010196C4DBF8016381CE01019638
:10318000ECDBCE010196BCDBD80114966C91CE012C
:103190000196E3DBCE010196B3DBF8016581CE0138
:1031A0000196DBDBD701ED91FC9169817A81008882
:1031B000F189E02D4F815885C70119958C01CE0109
:1031C00001962FDCC80128960FB6F894DEBF0FBE1B
:1031D000CDBFDF91CF911F910F91FF90EF90089598
:1031E0006F927F928F929F92AF92BF92CF92DF9217
:1031F000EF92FF920F931F93CF93DF9381E0809321
:10320000D6060E9452100091C6061091C706209162
:10321000C8063091C906AB01BC01401B510B620BC3
:10322000730B8091D2069091D306A0E0B0E0841792
:103230009507A607B70708F00AC1C0E08091D0063D
:10324000C81760F4E091CC06F091CD06EC0FF11DAB
:1032500062E080810E94F10FCF5FF0CF712C812C52
:10326000912C540183948091D106781608F05FC0A8
:10327000072D10E0E091CE06F091CF06E00FF11F90
:1032800061E080810E94F10FE091CE06F091CF06BF
:10329000E00FF11F60E080810E94C20FD501C401E0
:1032A000072C04C0880F991FAA1FBB1F0A94D2F7CE
:1032B0006C017C01E094F094612C8091D00668163A
:1032C000F8F4C62DD0E0E091CC06F091CD06EC0FDD
:1032D000FD1F80810E949A0F2496CC0FDD1FC659D6
:1032E000D94F892B29F4888199818C299D2904C083
:1032F000888199818E219F21998388836394DDCF72
:10330000E091CE06F091CF06E00FF11F61E08081E1
:103310000E94C20F8091CE069091CF06FC01E00F73
:10332000F11F60E080810E94F10F73949CCFE6E86A
:10333000F6E08FEF9FEF23813481232B21F410825D
:10334000928381831582369626E0E23CF20799F754
:1033500010E096E0F92E8091D006181708F051C0C1
:1033600000E0C12FD0E0CC0FDD1FCE58D94F209107
:10337000D106021708F043C068817981002E02C08F
:10338000769567950A94E2F761707727129F90010E
:103390001124200F311DE091CA06F091CB06E20FF7
:1033A000F31F4081EAE6F6E080E0A58DB68DA21716
:1033B000B30711F461701AC08F5F36968A30A9F78F
:1033C000672BD9F0E6E8F6E080E090E050815111FB
:1033D0000FC0F89EF001F99EF00D1124E659F94F47
:1033E000448F368F258F10A2178E61E04ED905C00D
:1033F000019636968A30910549F70F5FB8CF1F5F67
:10340000AACF80E090E0C0E0FC01E659F94F21A18D
:103410002111C1E006968C339105B1F70E9452103C
:103420006093C6067093C7068093C8069093C9063A
:10343000CC2369F080918B06882349F0809189061E
:1034400090918A06019719F48091860603C0109224
:10345000D60680E0DF91CF911F910F91FF90EF9002
:10346000DF90CF90BF90AF909F908F907F906F90A4
:1034700008951F920F920FB60F92112410922501FA
:10348000109224010F900FBE0F901F9018951F925D
:103490000F920FB60F9211240BB60F922F933F93FA
:1034A0004F935F938F939F93EF93FF9380912601A8
:1034B00090E0982F882720912701822B2091560792
:1034C00030915707A9014F5F5F4F509357074093C3
:1034D0005607220F331FF901EE5BF84F918380836B
:1034E0008091E5049091E60401969093E604809320
:1034F000E5041092250110922401FF91EF919F9114
:103500008F915F914F913F912F910F900BBE0F9034
:103510000FBE0F901F901895CF92DF92EF92FF92FF
:10352000A89581E08093850588E68093A705109291
:1035300086051092A80565E086E496E0ADD081E0AE
:1035400036DC2FEF80E792E0215080409040E1F799
:1035500000C0000082E090E087DC0E9452106B0106
:103560007C0180913C0590E020913D05821B9109F2
:1035700002978CF4A8950E945210DC01CB018C19A3
:103580009D09AE09BF09893E9340A105B10548F3E5
:1035900080E090E00EC086E496E00E94950E87FDE4
:1035A000F7CF86E496E00E94950EA7DC90E080536A
:1035B000984FFF90EF90DF90CF900895ADDF9093FC
:1035C000E0048093DF048FE294E00E94A51285E07E
:1035D000CCDC8F7792DC8093DE0486E394E00E945B
:1035E000A51284E0C2DC89DC8093DD048CE394E0E6
:1035F0000E94A51283E0B9DC80DC8093410781E45E
:1036000094E00E94A51282E0B0DC8F7376DC809398
:10361000DA0487E494E00E94A51281E0A6DC6DDC68
:103620008093DB048FE494E00E94A51280E09DDC8F
:1036300064DC8093DC040895CF92DF92EF92FF92D6
:103640000F931F93CF93DF937C01262F972F8A012F
:1036500080918505882391F0C62FD72F6E01C40E67
:10366000D51ECC15DD0571F06991D701ED91FC9166
:103670000190F081E02DC7011995F3CF642F822FBF
:103680000E94D911C801DF91CF911F910F91FF9036
:10369000EF90DF90CF900895CF93DF931F92CDB737
:1036A000DEB76983209185052223D1F02091A805FA
:1036B000203240F021E030E0FC013383228380E0BF
:1036C00090E015C080918605E82FF0E0E957FA4FA9
:1036D000998190838F5F809386058093A80505C0AC
:1036E00061E0CE0101960E94D91181E090E00F9037
:1036F000DF91CF9108950F931F93CF93DF938C01A8
:10370000E62F643008F0E3E020916506E21710F040
:10371000EFEFE20FF0E0EE5AF94F2489642F620FC9
:10372000606882E596E00E945A0CE8016991662380
:1037300029F082E596E00E94550CF8CFDF91CF91F9
:103740001F910F910895CF93DF93EC0140E060E06B
:1037500087E594E0D0DF2C2FFE018E2F821B919104
:103760009111FBCF44E1481B61E0CE01DF91CF9185
:10377000C2CF82E596E00C945C0C1F93CF93DF934D
:10378000CDB7DEB72C970FB6F894DEBF0FBECDBF16
:10379000811116C0EEDF40E060E08EE594E0ABDF23
:1037A00060910202709103024AE0CE0107969CD913
:1037B0008B8514E1181B60910202709103022FC0E7
:1037C0008130B1F4D6DF40E060E089E694E093DF39
:1037D00060910602709107024AE0CE01079684D9F3
:1037E0008B8514E1181B609106027091070217C0C7
:1037F000823021F5BEDF40E060E088E794E07BDFC7
:1038000060910402709105024AE0CE0107966CD9DE
:103810008B8514E1181B60910402709105024AE047
:10382000CE01019661D9412F61E089819A8163DFE0
:10383000CE010196F6D8CE010796F3D82C960FB696
:10384000F894DEBF0FBECDBFDF91CF911F910895D9
:10385000CF93DF93CDB7DEB76E970FB6F894DEBF88
:103860000FBECDBFA89585DF40E060E087E894E01B
:1038700042DF69E972E0CE010196DBD96091DF0495
:103880007091E0044AE0CE0149962ED94AE0609159
:10389000DE04CE01439653D94AE06091DD04CE01A7
:1038A00007964DD91E861D86188A1F861A8A198A80
:1038B0006F8178856115710529F04B855C85CE0196
:1038C0000D967BD863E673E0CE010D961ED8BE013F
:1038D0006D5E7F4F31D863E673E017D8BE01675E37
:1038E0007F4F2AD8BC01CE01019661D8CE010D963A
:1038F00098D8CE01079695D8CE01439692D8CE019E
:1039000049968FD840E061E089819A81F4DE69E9C7
:1039100072E0CE01019670D84AE06091DC04CE01DD
:1039200049960DD94AE06091DB04CE01439607D950
:103930004AE06091DA04CE01079601D91E861D8601
:10394000188A1F861A8A198A6F8178856115710510
:1039500029F04B855C85CE010D962FD866E774E083
:10396000CE010D960E948514BE016D5E7F4F0E94B0
:103970009C1466E774E00E948514BE01675E7F4F69
:103980000E949C146DE874E00E948514BC01CE0175
:1039900001960DD8CE010D9644D8CE01079641D898
:1039A000CE0143963ED8CE0149963BD840E062E036
:1039B00089819A81A0DE2FEF89EF90E0215080402D
:1039C0009040E1F700C00000CE0101962AD86E9623
:1039D0000FB6F894DEBF0FBECDBFDF91CF91089533
:1039E0000F931F93CF93DF938C01A89582E596E008
:1039F0000E945C0CE8016991662329F082E596E05B
:103A00000E94550CF8CF2FEF87EA91E621508040B5
:103A10009040E1F700C00000DF91CF911F910F911E
:103A20000895CF92DF92EF92FF920F931F93CF935F
:103A3000DF93CDB7DEB762970FB6F894DEBF0FBE47
:103A4000CDBFA895282F30E03093E4042093E30401
:103A5000823009F441C028F4882361F0813099F064
:103A6000F8C0833009F4E7C0853009F0F2C00E9445
:103A70009A09EFC082E596E00E945C0C40E060E0AD
:103A80008FE894E0E5C08091E1049091E204892BF5
:103A900009F4DFC082E596E00E945C0C69E972E0FF
:103AA000CE010196C6D86091E1047091E2044AE02B
:103AB000CE01079619D8BE01695F7F4FCE010196EE
:103AC0000E94D714CE0107960E94111589819A8110
:103AD0003ADECE010196ACC0E090E104F090E20441
:103AE000A89500910202109103024AE0B801CE01AC
:103AF00001960E9474156DEA74E0CE01079699D87C
:103B0000BE016F5F7F4FCE0107960E949C140E94FA
:103B10008F12CE0107960E941115CE0101960E94C8
:103B20001115B70180E090E00E94A92B6B017C0188
:103B3000B80180E090E00E94A92B9B01AC01C70175
:103B4000B6010E94512D6B017C0122E0AB01BC014A
:103B5000CE0101960E9445156AEF72E0CE010796EC
:103B600068D8BE016F5F7F4FCE0107960E949C14FC
:103B70000E948F12CE0107960E941115CE01019668
:103B80000E94111522E0B701A601CE0107960E94FE
:103B900016156091E1047091E2044AE0CE010196AD
:103BA0000E94741563EB74E0CE010D9642D8BE01FD
:103BB000695F7F4FCE010D960E949C140E948F1268
:103BC000CE010D960E94111567E574E0CE010D96A9
:103BD00030D8BE016F5F7F4FCE010D960E949C14BE
:103BE0000E948F12CE010D960E94111582E596E07B
:103BF0000E945C0C1F81088589819A81A4DD40E0C8
:103C000062E083EB94E077DD212FE12FF02F8E2F00
:103C1000821B91919111FBCF44E1481B63E0812FFE
:103C2000902F69DDCE0101960E941115CE010796F5
:103C30000E9411150EC082E596E00E945C0C40E0E7
:103C400060E08FEB93E057DD40E061E081E094E0DD
:103C500052DD62960FB6F894DEBF0FBECDBFDF9186
:103C6000CF911F910F91FF90EF90DF90CF9008952B
:103C70000F931F93CF93DF93CDB7DEB72C970FB67B
:103C8000F894DEBF0FBECDBF69E972E0CE010196A8
:103C90000E9419166EDD40E060E08BEB94E02BDDB6
:103CA00004E1A8959DDA182F833409F465C080EDEE
:103CB000810F8A3008F052C0CE0101960E94011493
:103CC0006F3F7F4F810591055CF053DD82EC94E0FE
:103CD00087DE4FDD40E060E08BEB94E00CDDE1CF70
:103CE000612FCE0107960E94CB15CE0107960E9448
:103CF0008F12CE0107960E941115612FCE010796F3
:103D00000E94CB15BE01695F7F4FCE0101960E94D4
:103D1000D714CE0107960E9411152BDD40E060E01C
:103D20008BEB94E0E8DC8D81402F481B61E08981BA
:103D30009A81E1DC61ED74E0CE0107960E941916CC
:103D4000BE016F5F7F4FCE0107960E949C140E94B8
:103D50008F12CE0107960E941115A3CF143409F0DB
:103D6000A0CF0D811E810115110541F0CE010196F4
:103D70000E9401148B0102C000E010E0CE01019608
:103D80000E941115C8012C960FB6F894DEBF0FBE25
:103D9000CDBFDF91CF911F910F91089561157105EE
:103DA00079F0FB0101900020E9F73197AF01461B44
:103DB000570BDC01ED91FC910280F381E02D199409
:103DC00080E090E00895CF93DF93CDB7DEB7699799
:103DD0000FB6F894DEBF0FBECDBF789484B5826075
:103DE00084BD84B5816084BD85B5826085BD85B59F
:103DF000816085BD80916E00816080936E0010921D
:103E00008100809181008260809381008091810097
:103E10008160809381008091800081608093800028
:103E20008091B10084608093B1008091B000816086
:103E30008093B00080919100826080939100809186
:103E400091008160809391008091900081608093C7
:103E500090008091A10082608093A1008091A100D8
:103E600081608093A1008091A00081608093A00078
:103E700080912101826080932101809121018160E4
:103E800080932101809120018160809320018091A5
:103E90007A00846080937A0080917A0082608093B7
:103EA0007A0080917A00816080937A0080917A0014
:103EB000806880937A001092C100E091B905F0917A
:103EC000BA0582E08083E091B505F091B6051082D5
:103ED000E091B705F091B80580E180831092C105AB
:103EE000E091BD05F091BE0586E08083E091BB05C1
:103EF000F091BC05808180618083E091BB05F091E9
:103F0000BC05808188608083E091BB05F091BC0591
:103F1000808180688083E091BB05F091BC05808141
:103F20008F7D80831092EB0487E293E00E94A512BC
:103F300044E064E182E596E00E94B81240E060E06F
:103F400088E393E0D8DB2FEF81EE94E021508040AE
:103F50009040E1F700C0000088E493E00E94A512C1
:103F60008AE090E09093D3068093D20688E190E0B7
:103F70000E94C12C909301028093000210922001B4
:103F800080EC8093210181E280937300789480918A
:103F9000210185608093210180E190E00E94C12C85
:103FA000909303028093020284E190E00E94C12C6E
:103FB000909307028093060282E190E00E94C12C58
:103FC000909305028093040288E190E00E94C12C46
:103FD000909301028093000261E082E30E94F10F5E
:103FE00060E082E30E94C20F61E083E30E94F10F70
:103FF00060E083E30E94C20F1092E2041092E10499
:1040000011E01093EB0480E00CDD10923D0510925E
:104010003C05109286051092A80510928405109315
:10402000830510925E0561E084E10E94C20F61E0A9
:1040300085E10E94C20F8091B9008E7F8093B90004
:104040008091B9008D7F8093B90088E48093B80097
:1040500085E48093BC008FE39CE90197F1F700C0F1
:104060000000ACDA6091DF047091E0044AE0CE0118
:1040700001960E9474154AE06091DE04CE01079615
:104080000E949F154AE06091DD04CE010D960E94CA
:104090009F156CE573E0CE0143960E941916BE0190
:1040A000635F7F4FCE0143960E949C1463E673E0EA
:1040B0000E948514BE01695F7F4F0E949C1463E6D5
:1040C00073E00E948514BE016F5F7F4F0E949C14B5
:1040D0000E948F12CE0143960E941115CE010D96BB
:1040E0000E941115CE0107960E941115CE0101966E
:1040F0000E9411154AE06091DC04CE0101960E94F5
:104100009F154AE06091DB04CE0107960E949F153F
:104110004AE06091DA04CE010D960E949F1565E693
:1041200073E0CE0143960E941916BE01635F7F4F74
:10413000CE0143960E949C1466E774E00E948514A9
:10414000BE01695F7F4F0E949C1463E673E00E948A
:104150008514BE016F5F7F4F0E949C140E948F12D6
:10416000CE0143960E941115CE010D960E941115A5
:10417000CE0107960E941115CE0101960E941115DD
:10418000A8951093850588E68093A705109286056B
:104190001092A80566E086E496E07EDA69E186E49E
:1041A00096E07ADA81E00E94D7169FEF20E782E05E
:1041B000915020408040E1F700C000009FEF29E6C9
:1041C00088E1915020408040E1F700C00000A4D970
:1041D000AC0160E070E02AE089EA95E00E94611697
:1041E00067E972E089EA95E0D9DD7724739483E08A
:1041F000C82ED12CEE24E394F12C22E0A22EB12C77
:1042000033E0832E912CA8958091EB04823009F441
:10421000E7C01CF4813031F10EC3833009F418C1BA
:10422000843009F008C3A8950E94F018182F69E996
:1042300072E0CE010D960E9419169BDA40E060E014
:1042400082ED93E058DA40E062E080EE93E053DAEA
:1042500040E061E08FEE93E04EDA0E9452101B01C5
:104260002C0117C16091E1047091E2044AE0CE0193
:1042700007960E9474150E94F018813481F04CF466
:10428000833209F45AC08A3209F455C0811181C0C1
:10429000A4C08334A1F02CF08434F9F07AC061E436
:1042A00001C062E4CE0101960E94CB15CE010196B9
:1042B0000E948F12CE0101960E9411158EC063E4F8
:1042C000CE0101960E94CB15CE0101960E948F125D
:1042D000CE0101960E94111528C08091E1049091B1
:1042E000E204209106023091070282179307B0F092
:1042F00020910402309105022817390778F082E0F6
:104300008093EB048EDB0E9452106093D906709369
:10431000DA068093DB069093DC065FC08CE693E0C0
:104320005FDB8CE793E00E94A5121092E2041092EA
:10433000E10480E051C06AE2B5CFA8950E94521016
:104340001B012C0116DA40E060E08EE893E0D3D93F
:1043500010E000E0A8950E945210DC01CB01821908
:104360009309A409B509813C944DA140B10508F019
:10437000D3C2033008F462C28AE993E031DB8FEFE5
:1043800093ED20E3815090402040E1F700C0000011
:10439000C6C2682FCE0101960E94CB15BE016F5F89
:1043A0007F4FCE0107960E94D714CE0101960E943E
:1043B0001115CE0107960E948F12CE0107960E941A
:1043C0000114693E2DEF72078105910534F4709355
:1043D000E2046093E10481E024DBCE01079629C268
:1043E000A8950E94F018843441F48FEB93E00E946A
:1043F000A51283E08093EB0429C0833439F47092D2
:10440000EB041092E2041092E1041FC00E945210CB
:104410000091D9061091DA062091DB063091DC0676
:10442000DC01CB01801B910BA20BB30B803C944DA4
:10443000A140B10508F4FFC17092EB041092E204B0
:104440001092E1048AEC93E0CBDA80E0EADAF3C17F
:104450006091E1047091E20480E090E00E94A92B59
:104460001B012C01609102027091030280E090E038
:104470000E94A92B9B01AC01C201B1010E94512DE8
:104480000E94E909D8C1133409F4CDC10E94F01883
:10449000182F0E945210DC01CB0182199309A40944
:1044A000B50981369A4EA105B10560F07092EB0412
:1044B00088EF93E095DA80E0B4DA88EF93E00E9429
:1044C000A512B5C1113309F0A7C18091E9049091FB
:1044D000EA04182F99279093EA048093E9040E9434
:1044E0009A09A8950E94F018082F843381F1863329
:1044F00099F1833209F040C03CD940E060E081E0AE
:1045000094E0F9D8609102027091030280E190E09A
:104510000E94D82C609106027091070284E190E01D
:104520000E94D82C609104027091050282E190E013
:104530000E94D82C609100027091010288E190E005
:104540000E94D82C7092EB0480E06BDA6CC11150A1
:10455000133034F012E004C01F5F13300CF010E091
:10456000812F90E09093EA048093E9040E949A09D5
:10457000113009F059C05EC0113009F45BC012302F
:1045800009F455C0111144C1843409F041C180E0DF
:10459000F4D800E0A8950E94F018282F843379F011
:1045A0003CF4833209F49DCF823361F542E312C0BB
:1045B000883379F08434B1F0863321F505C0015099
:1045C00007FF0DC002E00BC00F5F033044F000E0B6
:1045D00006C048E360E070E0802F0E944409802F0D
:1045E000CCD8D8CF898F44DB298D009731F040E0BB
:1045F000BC01802F0E944409298D802F298FBDD8AE
:10460000298D02C0222331F2622F89EA95E0298F99
:104610000E94AA1667E972E089EA95E0BFDB298D5E
:10462000233409F0B7CF5DCF123009F07DC110D926
:1046300012E0EEC0043409F0EAC0A895F092EA0452
:10464000E092E9040E949A09A8950E94F018182F98
:104650008091E704813099F01CF4882341F0CFC0A9
:10466000823009F46BC0833009F47DC0C8C01434B3
:1046700009F0C5C0F092E804E092E704DFCF1233FE
:1046800079F42DEC3CEC4CEC5DE360910802709108
:10469000090280910A0290910B020E94ED2C10C039
:1046A0001833B9F42DEC3CEC4CEC5DE3609108025E
:1046B0007091090280910A0290910B020E94EC2CE9
:1046C000609308027093090280930A0290930B0290
:1046D00009C0163311F0143429F4B092E804A09202
:1046E000E7043AC0409108025091090260910A0221
:1046F00070910B0222E0CE0101960E9445158D813A
:1047000004E1081B409108025091090260910A02DD
:1047100070910B0222E0CE0107960E944515402FB2
:1047200061E08F8198850E947B1BCE0107960E94D5
:104730001115CE0101960E94111561C06091080209
:104740007091090280910A0290910B020E94E9097E
:104750009092E8048092E704F092EA04E092E9047F
:104760000E949A094CC005D880E194E039D9A895F7
:104770000E94F018833459F41092E8041092E70470
:10478000F092EA04E092E9040E949A0936C080534C
:104790008A3058F46DDA8C01892B49F4A8950E946F
:1047A000B91B83E294E01CD9F5CF00E010E06091E2
:1047B000E5047091E60480E090E0CBD71B012C016A
:1047C000B80180E090E0C5D79B01AC01C201B10106
:1047D0000E94512D0E94B92D70930D0260930C021E
:1047E0000E94B91B8CE294E0FBD81092E80410926E
:1047F000E704F092EA04E092E90411E072CE133487
:1048000009F022CF1092E8041092E704F6CF11E0ED
:10481000033409F066CE07C0123309F034CED092CB
:10482000EA04C092E9047092EB0480E0FAD8CE0169
:104830000D960E9411150E94EA0DE5CC0E94F01819
:10484000282F882391F1233481F4112349F00E9409
:10485000B91B40E060E08EE893E00E947B1B4DC0F6
:104860000E94B91B80E0DDD855C0233209F452C044
:10487000622F89EA95E0298F0E94AA1667E972E003
:1048800089EA95E08BDA66246394610EE1E0F0E05A
:10489000EC0FFD1FE10FF11D298D2083462D61E0F6
:1048A0008CEA93E00E947B1B162D143008F452CD45
:1048B0000F5F8981803349F48A81803331F48B81A1
:1048C000803319F48C818033D1F08EEA93E088D85C
:1048D0000E94B91B8FEF91EE24E081509040204060
:1048E000E1F700C0000040E060E08EE893E00E9445
:1048F0007B1B0E9452101B012C0110E02BCD0E944B
:10490000B91B88EB93E00E94A51285E08AD884E069
:104910008093EB0463E2C6CC033008F02DCD8AEC23
:1049200093E00E94A512F6CF1111DBCD71CFCF928B
:10493000DF92EF92FF921F93CF93DF93CCE8D2E008
:10494000D093DE06C093DD061092DF061092E006DB
:104950001092E1061092E2061092170810921608C3
:1049600088EE93E0A0E0B0E08093180890931908D7
:10497000A0931A08B0931B0820E332E03093150887
:10498000209314084DEC50E05093210840932008E8
:104990004CEC50E0509323084093220848EC50E040
:1049A000509325084093240849EC50E05093270881
:1049B000409326084AEC50E0509329084093280879
:1049C0004EEC50E050932B0840932A0810922D088B
:1049D00010922E0810922F08109230081092AC05F9
:1049E0001092AB058093AD059093AE05A093AF05F3
:1049F000B093B0053093AA052093A90525EC30E0CB
:104A00003093B6052093B50524EC30E03093B8051B
:104A10002093B70520EC30E03093BA052093B90518
:104A200021EC30E03093BC052093BB0522EC30E054
:104A30003093BE052093BD0526EC30E03093C005D1
:104A40002093BF051092C2051092C3051092C405B1
:104A50001092C505109249061092480680934A06A6
:104A600090934B06A0934C06B0934D0684E492E0DD
:104A70009093470680934606D093E406C093E306DE
:104A80001092E5061092E6061092E7061092E806EC
:104A9000D093EA06C093E9061092EB061092EC065A
:104AA0001092ED061092EE061092550610925406E2
:104AB00086E592E0909353068093520686E18093B8
:104AC00056068FEF8093570687E18093580688E15A
:104AD0008093590689E180935A068AE180935B06A8
:104AE0008BE180935C0610925D0610925E06109238
:104AF0005F06109260061092610641E060E182E577
:104B000096E00E94B812D093F006C093EF06109280
:104B1000F1061092F2061092F3061092F40610922B
:104B20006C061092700610926F061092710682E663
:104B300092E090936B0680936A0680E090E0FC011F
:104B4000E659F94F148E10A2178E11A206968C33D7
:104B50009105A9F782E192E09093CD068093CC066F
:104B60008EE092E09093CF068093CE0684E080930F
:104B7000D0068093D10686E192E09093CB06809395
:104B8000CA068AE090E09093D3068093D20684EF21
:104B900091E09093D5068093D4061092D806109297
:104BA000D7061092C6061092C7061092C806109239
:104BB000C9061092D6068CE892E09093180780936D
:104BC00017071092190710921A0710921B071092DC
:104BD0001C0760E083E30E94F10FE5E1F4E0E4915B
:104BE000E0930907EFECF3E0E491F0E0EE0FFF1F34
:104BF000EE57FC4F8591949190930B0780930A0791
:104C0000109214071092160710921507E4E1F7E0CE
:104C1000129287E0EC30F807D9F789E097E090939B
:104C2000FC068093FB061092F9061092FA06109289
:104C3000F50689E08093F60611E01093F7061093CD
:104C4000F8061092080710920707CCE8D2E0D0933C
:104C50001E07C0931D0710921F0710922007109285
:104C6000210710922207D0932407C09323071092A4
:104C70002507109226071092270710922807D09335
:104C8000BE08C093BD081092BF081092C0081092D1
:104C9000C1081092C20884E198E09093B208809312
:104CA000B1088AE0E3EBF8E0DF011D928A95E9F7AD
:104CB0001092BC071092BB0788EEC82E83E0D82E56
:104CC000E12CF12CC092BD07D092BE07E092BF0745
:104CD000F092C0078CE692E09093BA078093B907F0
:104CE00010921308109212081092110810921008D6
:104CF00081EB98E09093C6078093C5071093C70790
:104D00001092C9071092C8071092CA071092CB07D9
:104D10001092CC071092CD071092CE071092CF07B9
:104D200089EB97E09093B6088093B50869E972E043
:104D300083EB97E00E941916D093AE07C093AD079E
:104D40001092AF071092B0071092B1071092B207FD
:104D50008AE090E090935F0780935E07109360076E
:104D6000C0926107D0926207E0926307F0926407F5
:104D700010926607109265071092680710926707F5
:104D800010926A07109269078BE0EBE6F7E0DF010B
:104D90001D928A95E9F71092760710927807109283
:104DA000770710927A071092790710927C07109279
:104DB0007B0710927E0710927D0710927F0710925A
:104DC0008007109281071092820710928307109239
:104DD000840710928507109286071092A8071092F8
:104DE000AA071092A9071092AC071092AB0781E2B4
:104DF000E7E8F7E0DF011D928A95E9F780E091E0AE
:104E0000909359078093580781E091E07CD090936C
:104E10005B0780935A0780E091E075D090935D071F
:104E200080935C07D0932A07C093290710922B0721
:104E300010922C0710922D0710922E07D093300756
:104E4000C0932F0710923107109232071092330748
:104E5000109234070E9452106093D9067093DA06BC
:104E60008093DB069093DC06D0933607C09335071A
:104E700010923707109238071092390710923A07AC
:104E8000D0933C07C0933B0710923D0710923E071A
:104E900010923F0710924007DF91CF911F91FF9032
:104EA000EF90DF90CF900895CF93DF93C8E5D7E0E0
:104EB0008A819B81BDD08C819D81BAD083EB97E0A4
:104EC000DF91CF910C941115EF920F931F93CF9315
:104ED000DF93E80147FD02C034E001C034E1E42F74
:104EE000440FFF0BF7FF03C0F195E195F109E32EA5
:104EF000022F2E2FAE01ACD1CE01DF91CF911F91A9
:104F00000F91EF900895CF93DF938230910510F4C5
:104F100082E090E0E091C508F091C60820E030E022
:104F2000C0E0D0E0309711F1408151814817590716
:104F3000C0F04817590761F482819381209719F0D6
:104F40009B838A832BC09093C6088093C50826C094
:104F50002115310519F04217530718F49A01BE01C3
:104F6000DF01EF010280F381E02DDCCF2115310557
:104F700009F1281B390B2430310590F412968D91DC
:104F80009C9113976115710521F0FB019383828336
:104F900004C09093C6088093C508FD01329644C0B2
:104FA000FD01E20FF31F81939193225031092D935C
:104FB0003C933AC02091C3083091C408232B41F49C
:104FC00020912802309129023093C4082093C3080D
:104FD00020912602309127022115310541F42DB789
:104FE0003EB740912A0250912B02241B350BE091D1
:104FF000C308F091C408E217F307A0F42E1B3F0B7F
:105000002817390778F0AC014E5F5F4F241735073A
:1050100048F04E0F5F1F5093C4084093C30881931C
:10502000919302C0E0E0F0E0CF01DF91CF910895CD
:105030000F931F93CF93DF93009709F48CC0FC016B
:105040003297138212820091C5081091C60801158B
:10505000110581F420813181820F931F2091C308B3
:105060003091C4082817390779F5F093C408E09304
:10507000C30871C0D80140E050E0AE17BF0750F43C
:1050800012962D913C911397AD012115310509F12F
:10509000D901F3CF9D01DA013383228360817181CD
:1050A000860F971F8217930769F4EC0128813981D5
:1050B000260F371F2E5F3F4F318320838A819B81CC
:1050C00093838283452B29F4F093C608E093C508A7
:1050D00042C01396FC93EE931297ED0149915991BA
:1050E0009E01240F351FE217F30771F4808191812F
:1050F000840F951F029611969C938E9382819381C3
:1051000013969C938E931297E0E0F0E0D8011296EC
:105110008D919C911397009719F0F8018C01F6CFAF
:105120008D919C9198012E5F3F4F820F931F20918C
:10513000C3083091C4082817390769F4309729F457
:105140001092C6081092C50802C0138212821093F2
:10515000C4080093C308DF91CF911F910F91089568
:105160001F93FC0199278827BC01E8941191103204
:10517000E9F3193010F01E30C8F31B3249F01D322C
:1051800041F4689405C02CD0610F711D811D911DE3
:10519000119110531A30B8F33EF4909580957095A4
:1051A00061957F4F8F4F9F4F1F910895FB01DC0149
:1051B00005900D920020E1F70895FC010590002074
:1051C000E9F7809590958E0F9F1F0895BB274A3071
:1051D00031F4992322F4BDE2909581959F4F20C030
:1051E000592F482F372F262F660F771F881F991F9B
:1051F000660F771F881F991F620F731F841F951FEB
:10520000660F771F881F991F08954532510518F4BE
:10521000423008F004C0FB011082CB010895BB2787
:10522000FB015527AA27880F991FAA1FA41710F062
:10523000A41B83955051B9F7A05DAA3308F0A95D6E
:10524000A193009779F7B111B1931192CB016DC27F
:105250004F925F926F927F929F92AF92BF92CF9246
:10526000DF92EF92FF920F931F93CF93DF93CDB70F
:10527000DEB729970FB6F894DEBF0FBECDBF6A0127
:10528000122FB02E2BE3201720F0FF24F394F00E02
:1052900002C0BCE3FB2E0F2D27E0AE014F5F5F4F36
:1052A00064D1AC018981982F9970913031F0E1FC83
:1052B00006C0E0FE06C090E205C09DE203C09BE28E
:1052C00001C090E0EE2DE07183FF3CC0911102C05F
:1052D00083E001C084E0811718F4212F281B01C04E
:1052E00020E0E1110BC0F601822F30E2882319F093
:1052F00031938150FBCFC20ED11C20E0992329F0BD
:10530000D6019C93F60131966F01C6010396E2FE29
:105310000AC03EE4D6013C9341E411964C931197A8
:1053200012963C9306C03EE6F601308341E6418387
:105330003283FC01322F40E2332309F442C041930F
:105340003150FACF82FF44C0911102C083E001C006
:1053500084E0811718F4212F281B01C020E0E111FF
:105360000BC0F601822F30E2882319F0319381506F
:10537000FBCFC20ED11C20E0992329F0D6019C93CB
:10538000F60131966F01C6010396E2FE0BC039E4C7
:10539000D6013C933EE411963C93119736E4129665
:1053A0003C9307C039E6F60130833EE6318336E6AA
:1053B0003283FC01322F40E2332319F04193315004
:1053C000FBCFFC01E20FF11D10828EEF9FEFB7C003
:1053D000F1E0911101C0F0E06F2F70E01416150696
:1053E00024F49A012F5F3F4F02C021E030E0260FE6
:1053F000371FBB2029F06B2D70E06F5F7F4F02C01D
:1054000060E070E0260F371F612F70E02617370726
:105410001CF4121B212F01C020E03E2D387159F4DD
:10542000D601322F60E2332319F06D933150FBCF58
:10543000C20ED11C20E0FF2331F0D6019C93B601AF
:105440006F5F7F4F6B01E1110BC0F601922F30E3CC
:10545000992319F031939150FBCFC20ED11C20E05B
:105460009F2D940F3A81782F7071A72E84FF03C06F
:10547000313309F49150191624F4993018F098E05A
:1054800001C091E0E42F852F57FF02C0E0E080E0EB
:105490006E2F782FE0E0F0E0AEE29A2E3A01691A22
:1054A00071082A01461A570A0B2D10E01195019533
:1054B00011096F3F8FEF780729F4D6019C92C6013E
:1054C00001966C014617570784F0661677066CF450
:1054D0007F01E40CF51CA1E0B0E0AC0FBD1FEA0EAB
:1054E000FB1ED7011196BC9002C090E3B92E61500B
:1054F00071093196C60101967C016017710724F08D
:10550000D601BC926C01D5CF6417750741F43633D0
:1055100020F4353321F4A11002C081E3B82EF60146
:10552000B082F701822F90E2882319F09193815085
:10553000FBCFF701E20FF11D108280E090E0299689
:105540000FB6F894DEBF0FBECDBFDF91CF911F9194
:105550000F91FF90EF90DF90CF90BF90AF909F9012
:105560007F906F905F904F900895283008F027E06B
:105570003327DA01990F311D87FD9160009661058F
:10558000710539F432602E5F3D9330E32A95E1F7DF
:1055900008959F3F30F080387105610509F03C5F48
:1055A0003C5F3D93913008F08068911DDF93CF936D
:1055B0001F930F93FF92EF92192F987F9695E92FE3
:1055C00096959695E90FFF27E059FE4F99273327C7
:1055D000EE24FF24A701E70105900894079428F41E
:1055E000360FE71EF81E491F511D660F771F881FD3
:1055F000991F0694A1F70590079428F4E70EF81E6A
:10560000491F561FC11D770F881F991F661F0694DB
:10561000A1F70590079428F4F80E491F561FC71FDD
:10562000D11D880F991F661F771F0694A1F705905B
:10563000079420F4490F561FC71FD81F990F661FE4
:10564000771F881F0694A9F784911095177041F071
:10565000D695C79557954795F794E7941A95C1F74E
:10566000E6E1F1E068941590159135916591959179
:1056700005907FE27395E118F10A430B560BC90BB5
:10568000D009C0F7E10CF11E431F561FC91FD01DE2
:105690007EF4703311F48A95E6CFE894015030F02F
:1056A000080F0AF40027021708F4202F2395022F71
:1056B0007A3328F079E37D932A95E9F710C07D933A
:1056C0002A9589F6069497956795379517951794B7
:1056D000E118F10A430B560BC90BD00998F023953A
:1056E0007E9173957A3308F070E37C932013B8F7BA
:1056F0007E9170617D9330F0839571E37D9370E3CB
:105700002A95E1F71124EF90FF900F911F91CF910F
:10571000DF91992787FD909508959111DEC0803221
:1057200019F089508550D0F70895DC01FC01672FEE
:1057300071917723E1F7329704C07C916D93708368
:105740006291AE17BF07C8F3089540D008F481E016
:105750000895E89409C097FB3EF490958095709564
:1057600061957F4F8F4F9F4F9923A9F0F92F96E9AD
:10577000BB279395F695879577956795B795F11122
:10578000F8CFFAF4BB0F11F460FF1BC06F5F7F4FBF
:105790008F4F9F4F16C0882311F096E911C07723D1
:1057A00021F09EE8872F762F05C0662371F096E8DA
:1057B000862F70E060E02AF09A95660F771F881FA9
:1057C000DAF7880F9695879597F90895990F00084D
:1057D000550FAA0BE0E8FEEF16161706E807F907C3
:1057E000C0F012161306E407F50798F0621B730B5E
:1057F000840B950B39F40A2661F0232B242B252BDF
:1058000021F408950A2609F4A140A6958FEF811D81
:10581000811D08950BD07BC06CD028F071D018F09A
:10582000952309F05DC062C01124A5C081D0A0F30A
:10583000959FD1F3950F50E0551F629FF001729F25
:10584000BB27F00DB11D639FAA27F00DB11DAA1F44
:10585000649F6627B00DA11D661F829F2227B00D91
:10586000A11D621F739FB00DA11D621F839FA00D1C
:10587000611D221F749F3327A00D611D231F849F6C
:10588000600D211D822F762F6A2F11249F575040C3
:105890008AF0E1F088234AF0EE0FFF1FBB1F661F5E
:1058A000771F881F91505040A9F79E3F510570F017
:1058B00017C061C05F3FECF3983EDCF386957795A7
:1058C0006795B795F795E7959F5FC1F7FE2B880F12
:1058D000911D9695879597F908959927882708959A
:1058E00097F99F6780E870E060E008959FEF80EC93
:1058F000089500240A941616170618060906089536
:1059000000240A9412161306140605060895092E9B
:105910000394000C11F4882352F0BB0F40F4BF2B0A
:1059200011F460FF04C06F5F7F4F8F4F9F4F08954A
:1059300057FD9058440F551F59F05F3F71F0479540
:10594000880F97FB991F61F09F3F79F08795089525
:10595000121613061406551FF2CF4695F1DF08C044
:10596000161617061806991FF1CF86957105610561
:1059700008940895E894BB2766277727CB0197F909
:105980000895A8E1B0E042E050E018C0262FF99950
:10599000FECF92BD81BDF89A019700B4021639F08E
:1059A0001FBA20BD0FB6F894FA9AF99A0FBE08955F
:1059B0000196272FECDFEACFDC01CB01FC01F9993E
:1059C000FECF06C0F2BDE1BDF89A319600B40D924B
:1059D00041505040B8F708955058BB27AA270ED021
:1059E00096CF87DF30F08CDF20F031F49F3F11F449
:1059F0001EF47CCF0EF4E095E7FB72CFE92F98DF21
:105A000080F3BA17620773078407950718F071F4DB
:105A10009EF5B0CF0EF4E0950B2EBA2FA02D0B0102
:105A2000B90190010C01CA01A0011124FF27591BE3
:105A300099F0593F50F4503E68F11A16F040A22FE9
:105A4000232F342F4427585FF3CF4695379527955A
:105A5000A795F0405395C9F77EF41F16BA0B620B59
:105A6000730B840BBAF09150A1F0FF0FBB1F661FA0
:105A7000771F881FC2F70EC0BA0F621F731F841FE3
:105A800048F4879577956795B795F7959E3F08F009
:105A9000B3CF9395880F08F09927EE0F97958795C8
:105AA00008950CD034CF2CDF40F023DF30F021F408
:105AB0005F3F19F015CF51115ECF18CF39DF98F342
:105AC0009923C9F35523B1F3951B550BBB27AA277F
:105AD00062177307840738F09F5F5F4F220F331FF1
:105AE000441FAA1FA9F333D00E2E3AF0E0E830D0BD
:105AF00091505040E695001CCAF729D0FE2F27D0C0
:105B0000660F771F881FBB1F261737074807AB078D
:105B1000B0E809F0BB0B802DBF01FF2793585F4F02
:105B20002AF09E3F510568F0DBCE25CF5F3FECF3B6
:105B3000983EDCF3869577956795B795F7959F5FC7
:105B4000C9F7880F911D9695879597F90895E1E01B
:105B5000660F771F881FBB1F621773078407BA077A
:105B600020F0621B730B840BBA0BEE1F88F7E095D5
:105B70000895E6DE88F09F5790F0B92F9927B75126
:105B8000A0F0D1F0660F771F881F991F1AF0BA9501
:105B9000C9F712C0B13081F0EDDEB1E00895EACE70
:105BA000672F782F8827B85F39F0B93FCCF38695F7
:105BB00077956795B395D9F73EF490958095709554
:105BC00061957F4F8F4F9F4F0895AA1BBB1B51E1DB
:105BD00007C0AA1FBB1FA617B70710F0A61BB70B5D
:105BE000881F991F5A95A9F780959095BC01CD0102
:105BF0000895A1E21A2EAA1BBB1BFD010DC0AA1F0E
:105C0000BB1FEE1FFF1FA217B307E407F50720F025
:105C1000A21BB30BE40BF50B661F771F881F991FA0
:105C20001A9469F760957095809590959B01AC01E9
:105C3000BD01CF010895EE0FFF1F881F8BBF079096
:105C4000F691E02D19946F927F928F929F92AF926E
:105C5000BF92CF92DF92EF92FF920F931F93CF9359
:105C6000DF93EC01009781F4CB01DF91CF911F917D
:105C70000F91FF90EF90DF90CF90BF90AF909F90EB
:105C80008F907F906F903FC9FC01E60FF71F9C013A
:105C900022503109E217F30708F4A8C0D9010D9189
:105CA0001C91119706171707A8F00530110508F485
:105CB0009BC0C80104978617970708F495C0025047
:105CC0001109061B170B019311936D937C93CF0160
:105CD000AFD98AC05B01A01AB10A4C01800E911E97
:105CE000A091C508B091C60840E050E0E12CF12C2D
:105CF000109709F44AC0A815B905D1F56D907C90AC
:105D00001197630182E0C80ED11CCA14DB0480F134
:105D1000A3014A195B096A0182E0C80ED11C1296E0
:105D2000BC9012971396AC91B5E0CB16D10440F01D
:105D3000B282A38351834083D9016D937C930AC0BF
:105D40000E5F1F4FC301800F911FF9019183808364
:105D5000EB2DFA2FE114F10431F0D7011396FC93E7
:105D6000EE93129741C0F093C608E093C5083CC07B
:105D70008D919C9111974817590708F4AC017D014A
:105D800012960D90BC91A02DB3CF8091C308909135
:105D9000C40888159905E1F446175707C8F480919F
:105DA000260290912702009741F48DB79EB740914B
:105DB0002A0250912B02841B950BE817F907B0F4C7
:105DC000F093C408E093C308F901718360830CC0A9
:105DD000CB0199D87C01009749F0A801BE011BD0E6
:105DE000CE0126D9C70104C0CE0102C080E090E0F8
:105DF000DF91CF911F910F91FF90EF90DF90CF90A7
:105E0000BF90AF909F908F907F906F90089581E0AA
:105E100090E0F8943EC0FB01DC0102C001900D92BD
:105E200041505040D8F70895FC018191861721F028
:105E30008823D9F7992708953197CF010895FB0159
:105E4000DC018D91019080190110D9F3990B08950F
:105E5000FB01DC0101900D920020E1F70895FB01A8
:105E600051915523A9F0BF01DC014D914517411116
:105E7000E1F759F4CD010190002049F04D91401512
:105E80004111C9F3FB014111EFCF81E090E001978F
:105E9000089512E0C7E2D2E000E005C0802FFE01C5
:105EA000CADE2196011DC832D10780E00807B1F78C
:045EB000F894FFCF94
:105EB400C2010A00E8031400CDCCCC3D00003E3FF3
:105EC4004041424344453132334134353642373818
:105ED40039432A3023440000C70880000000000032
:105EE4001D0E24129C0CC90DF70CAB0CD70C630DC2
:105EF400000000004C1B1C1B9602850EA90E950E7B
:105F0400860E00000000550C241296029502000033
:105F140000001B0314031803000000009F171C1843
:105F240096026B02E60879029C179718EF05790729
:105F3400D6025A028F17071800000000B10E0000A5
:105F44000000F40E4154000D0A00534554205052F1
:105F54004943455300507265737320274427004317
:105F6400414C494252415445002850726573732094
:105F740027442729005155414E544954593A004465
:105F8400697370656E73696E672E2E2E00455252CA
:105F94004F522044495350454E53494E472E2E00EC
:105FA40044697370656E736564204C3A20005355E0
:105FB40043434553532E2E2E00416464696E67207B
:105FC4004C6F673A2000446179203A2000202C501D
:105FD400726963653A2000496E697469616C69731A
:105FE400696E67204C434400496E697469616C6949
:105FF40073696E672E2E2E00496E697469616C692F
:1060040073696E67204B65795061640044617465FF
:106014003A20002F0054696D653A2000496E76617C
:106024006C69642050726963652E2E00496E766136
:106034006C69642053656C656374696F6E00454ECA
:106044005445522050494E3A2000546F6F204D6100
:106054006E7920417474656D707473002A00575210
:106064004F4E472050494E004F4B2050696E00441C
:10607400697370656E73696E670054696D656F75D9
:10608400740053454C454354204D454E553A200029
:10609400313A204D41494E54454E414E434500321C
:1060A4003A2041554449540054494D454F555421D3
:1060B40000506C6561736520576169742E2E2E0043
:1060C400456E7465722044697370656E73656420EF
:1060D4004C3A004E6F20496E707574004F4B000AA5
:1060E4004D4F4E5448000A44415445000A44415916
:1060F400000A484F5552000A4D494E555445000A6E
:106104005345434F4E440050726963653A0053450A
:10611400542050524943453A00534554204D494E6A
:106124002050524943453A00534554204D4158208C
:1061340050524943453A0054696D653A002C005069
:106144006C65617365204D616B65206120202020A2
:1061540020202053656C656374696F6E00502F4C6A
:106164003A20004C69747265733A00496E70757414
:106174003A0056414C554520544F4F204849474812
:0A61840000494E5055543A20000027
:00000001FF
